:0200000480007A
:100000006F00000B1300000013000000130000003D
:100010001300000013000000130000001300000094
:10002000232E11FE232C51FE232A61FE232871FE6C
:100030002326A1FE2324B1FE2322C1FE2320D1FECC
:10004000232EE1FC232CF1FC232A01FD232811FDA2
:100050002326C1FD2324D1FD2322E1FD2320F1FD30
:10006000130101FCEF0000108320C10383228103F0
:1000700003234103832301030325C1028325810256
:1000800003264102832601020327C1018327810140
:100090000328410183280101032EC100832E810022
:1000A000032F4100832F010013010104730020304E
:1000B000971100009381018D138101A017050000A5
:1000C0001305450C970500009385C50B6308B50023
:1000D00023200500130545006FF05FFF17050000A2
:1000E0001305450A1301C1FF970500009385850993
:1000F000630EB50083260500130545002320A100EB
:10010000E7800600032501006FF01FFE1301410088
:10011000371500001305058873104530372500009A
:100120001305858073100530EF0080006F0000001C
:10013000130101FF2326810013040101B70700F01A
:100140001307F00F23A4E700B70700F0130710010F
:1001500023A2E700130000000324C10013010101E2
:1001600067800000130101FF2326810013040101B1
:10017000130000000324C100130101016780000087
:040000058000000077
:00000001FF
