:0200000480007A
:100000006F00000B1300000013000000130000003D
:100010001300000013000000130000001300000094
:10002000232E11FE232C51FE232A61FE232871FE6C
:100030002326A1FE2324B1FE2322C1FE2320D1FECC
:10004000232EE1FC232CF1FC232A01FD232811FDA2
:100050002326C1FD2324D1FD2322E1FD2320F1FD30
:10006000130101FCEF00D0278320C1038322810309
:1000700003234103832301030325C1028325810256
:1000800003264102832601020327C1018327810140
:100090000328410183280101032EC100832E810022
:1000A000032F4100832F010013010104730020304E
:1000B000971100009381013F138101A017150000E3
:1000C000130545BE971500009385C5BD6308B500AF
:1000D00023200500130545006FF05FFF1715000092
:1000E000130505BC1301C1FF97150000938545BB9F
:1000F000630EB50083260500130545002320A100EB
:10010000E7800600032501006FF01FFE1301410088
:10011000371500001305058873104530372500009A
:100120001305858073100530EF0050166F00000036
:100130006340050663C605061386050093050500A2
:100140001305F0FF630C060293061000637AB600F5
:100150006358C0001316160093961600E36AB6FEA5
:100160001305000063E6C500B385C5403365D500BF
:1001700093D6160013561600E39606FE678000001D
:1001800093820000EFF05FFB13850500678002009B
:100190003305A04063D80500B305B0406FF0DFF928
:1001A000B305B04093820000EFF01FF93305A04083
:1001B000678002009382000063CA0500634C05005B
:1001C000EFF09FF71385050067800200B305B0408C
:1001D000E35805FE3305A040EFF01FF63305B040AD
:0401E0006780020032
:1001E40083A6850093F7060113F6F60063860700DD
:1001F40083A745003366F60083D7050013F7F70F8E
:10020400630E070403270500930580046380B62466
:10021400930580026386B65293F51700639C0544E8
:1002240093F527006396054893F54700639E054CB4
:1002340093F58700639E054A93F50701639E05487D
:1002440093F50702639E054693F5070463960544F8
:1002540093F50708639605422320E5001307F00F82
:100264006376F71003274500930580046392B61064
:1002740093F60710638A0600137707FF93060010AE
:100284003367E6002328D50093F60720638C060025
:10029400931646001377F7F033E7E6009306002041
:1002A4002328D50093F6074063800602B7F6FFFFC4
:1002B4009386F60F3377D7009316860033E7E6006C
:1002C400930600402328D500B716000093860680C5
:1002D400B3F5D700638E0500B715FFFF9385F5FFCF
:1002E4003377B7009315C60033E7E5002328D5001C
:1002F4009396370163D00602B706F1FF9386F6FFA3
:100304003377D7009316060133E7E600B7160000EB
:100314002328D5009396270163D00602B70610FF61
:100324009386F6FF3377D7009316460133E7E6004A
:10033400B72600002328D5009396170163D0060240
:10034400B70600F19386F6FF3377D700931686013C
:1003540033E7E600B74600002328D500939707014A
:1003640093D7074163CE073A2322E5006780000054
:10037400930580026384B61E93F607106386060015
:10038400137707FF3367E60093F6072063880600B8
:100394001377F7F09316460033E7E60093F6074029
:1003A400638C0600B7F6FFFF9386F60F3377D7000A
:1003B4009316860033E7E6009396470163DC060054
:1003C400B716FFFF9386F6FF3377D7009316C60060
:1003D40033E7E6009396370163DC0600B706F1FFC6
:1003E4009386F6FF3377D7009316060133E7E600CA
:1003F4009396270163DC0600B70610FF9386F6FF89
:100404003377D7009316460133E7E6009396170136
:1004140063DC0600B70600F19386F6FF3377D70056
:100424009316860133E7E6009397070193D70741B4
:10043400E3DC07F213174700135747001316C601EE
:100444003367E6002322E5006FF05FF293F51700AF
:10045400638A0500137707FF930510003367E600EE
:100464002328B50093F52700638C050093154600F7
:100474001377F7F033E7E500930520002328B50050
:1004840093F5470063800502B7F5FFFF9385F50FE9
:100494003377B7009315860033E7E50093054000F2
:1004A4002328B50093F5870063800502B715FFFF85
:1004B4009385F5FF3377B7009315C60033E7E5005E
:1004C400930580002328B50093F507016380050296
:1004D400B705F1FF9385F5FF3377B7009315060150
:1004E40033E7E500930500012328B50093F50702DF
:1004F40063800502B70510FF9385F5FF3377B700D6
:100504009315460133E7E500930500022328B5005F
:1005140093F5070463800502B70500F19385F5FFA1
:100524003377B7009315860133E7E500930500049C
:100534002328B50093F50708E38005D21317470075
:100544009315C6011357470033E7E50093050008E8
:100554002328B5002320E5006FF05FD093F6071041
:10056400638A0600137707FF930600103367E600DB
:10057400232AD50093F60720638C060093164600C1
:100584001377F7F033E7E60093060020232AD5001B
:1005940093F6074063800602B7F6FFFF9386F60FD3
:1005A4003377D7009316860033E7E60093060040BE
:1005B400232AD500B716000093860680B3F5D7002A
:1005C400638E0500B715FFFF9385F5FF3377B700FA
:1005D4009315C60033E7E500232AD5009396370127
:1005E40063D00602B706F1FF9386F6FF3377D70090
:1005F4009316060133E7E600B7160000232AD50058
:100604009396270163D00602B70610FF9386F6FF80
:100614003377D7009316460133E7E600B726000088
:10062400232AD5009396170163D00602B70600F17A
:100634009386F6FF3377D7009316860133E7E600F7
:10064400B7460000232AD5009397070193D70741A3
:10065400E3DC07D013174700135747001316C601EE
:10066400B78700003367E600232AF5002322E5005C
:100674006FF0DFCF137707FF3367E6006FF05FBAE1
:1006840013174700135747009315C60133E7E500D6
:100694002320E5006FF09FBCB70500F19385F5FFBB
:1006A4003377B7009315860133E7E5006FF05FBA3F
:1006B4001377F7F09315460033E7E5006FF0DFB6E4
:1006C400B70510FF9385F5FF3377B70093154601FF
:1006D40033E7E5006FF05FB7B705F1FF9385F5FFEA
:1006E4003377B7009315060133E7E5006FF05FB584
:1006F400B715FFFF9385F5FF3377B7009315C60051
:1007040033E7E5006FF05FB3B7F5FFFF9385F50FAF
:100714003377B7009315860033E7E5006FF05FB1D8
:1007240013174700135747001316C601B787000075
:100734003367E6002328F5002322E5006FF01FC38A
:1007440093F51700638A0500137707FF93051000DC
:100754003367E600232AB50093F52700638C050070
:10076400931546001377F7F033E7E500930520006F
:10077400232AB50093F5470063800502B7F5FFFF10
:100784009385F50F3377B7009315860033E7E500BB
:1007940093054000232AB50093F587006380050282
:1007A400B715FFFF9385F5FF3377B7009315C600A0
:1007B40033E7E50093058000232AB50093F507018C
:1007C40063800502B705F1FF9385F5FF3377B70022
:1007D4009315060133E7E50093050001232AB500CC
:1007E40093F5070263800502B70510FF9385F5FFB3
:1007F4003377B7009315460133E7E500930500020C
:10080400232AB50093F5070463800502B70500F1B8
:100814009385F5FF3377B7009315860133E7E50039
:1008240093050004232AB50093F50708E38605A27F
:10083400131747009315C6011357470033E7E50024
:1008440093050008232AB5002320E5006FF01FA1BB
:080854002328B50067800000B5
:08085C00232AB50067800000AB
:1008640003D6250083D7050003D7450083D665004A
:1008740083D88500B3E7C70003D8A500B3E7E70032
:10088400B3E7D70003D7C500B3E717010356050044
:1008940083D6E500B3E70701B3E7E7003737000085
:1008A400130707043377C700B3E7D700B367F7002C
:1008B4002310F5008356C501B7F7FFFF03D70501E1
:1008C4009387F77FB3F7D700231EF5002318E500BD
:0408D4006780000039
:1008D800835705006388050093E707042310F50094
:1008E800678000009397070193D7070193F7F7FBF9
:1008F8009397070193D707012310F500678000003D
:1009080083570500130101FF2324810093970701F2
:1009180093D7070193F7E7FF9397070123229100E5
:1009280093D70701232611009384050083A50500AA
:100938002310F500B78701009387076A13040500A1
:1009480063ECB7083755120093951500130505F8A1
:10095800EFF00FFE9317050193D707011307400027
:100968001385070063E6E7061315050193071000D2
:10097800135505012310F402231EA4000357040095
:1009880083D6440083D5A400136717002310E4001E
:100998008357040003D7C40003D684009397070144
:1009A80093D7070193F757BFB3E6B600B3E7D7006D
:1009B8002310F400B367C7002314F4008320C10098
:1009C8000324810083244100130101016780000092
:1009D800130540006FF05FF903D76400B7C7000044
:1009E8009387F7FF6308F70493971500B387B70059
:1009F8009397370037551200B385B700130505F8EC
:100A0800EFF00FF31315050113550501B747000063
:100A18003365F500931745016394070013651500C6
:100A2800B78700003365F500930710002310F40220
:100A38006FF09FF49397150037551200B385B700F0
:100A4800130505F8EFF0CFEE131505011355050151
:040A58006FF05FFCE0
:100A5C00835705006388050093E717002310F50002
:100A6C00678000009397070193D7070193F7E7FF7F
:100A7C009397070193D707012310F50067800000B7
:100A8C00130101FF23261100EF000005EF00000DFC
:100A9C00EF000014B70700F01307F00F23A4E700D2
:100AAC001307100023A2E700B70701F023A4E70007
:100ABC001307700023A6E7008320C100130710045E
:100ACC0023A0E7001307200423A0E7001301010172
:040ADC00678000002F
:040AE000678000002B
:100AE400130101FE930710002312F1009307000184
:100AF400930541002326F100370503F093073000E6
:100B0400232E11002324F100EFF08FED9305100044
:100B1400370503F0EFF0DFD393051000370503F03A
:100B2400EFF09FD393072000930541002312F100B7
:100B3400370503F0930740012326F100EFF04FEA55
:100B440093052000370503F0EFF09FD093052000B4
:100B5400370503F0EFF05FD08320C10113010102D8
:040B640067800000A6
:100B6800130101FD9307C0012326F1009307000339
:100B7800930541002312F100371503F09307300065
:100B8800232611022324F100EFF04FE5B7C7000038
:100B9800938707352328F100B7470000231EF1008B
:100BA800B707FFBF93050101232AF100370506F0B7
:100BB800B7070004232CF100EFF09FD49305100031
:100BC800370506F0EFF01FE98320C1021301010386
:040BD8006780000032
:100BDC00130101FD930700012324F100B717000056
:100BEC0023248102930501001304300093870780AE
:100BFC00371503F0232611022310F1002322810064
:100C0C00EFF08FDD93078001930501002324F100A1
:100C1C00371503F0930700302310F10023228100D5
:100C2C00EFF08FDB93078004930501002324F10080
:100C3C00371503F0930700402310F10023228100A5
:100C4C00EFF08FD9B70704012326F100B707000294
:100C5C00232AF100930700039305C100232CF10014
:100C6C00370507F093077000231EF10023280100BD
:100C7C00EFF09FBE93051000370507F0EFF01FC58E
:100C8C008320C10203248102130101036780000049
:040000058000000077
:00000001FF
