:0200000480007A
:100000006F00000B1300000013000000130000003D
:100010001300000013000000130000001300000094
:10002000232E11FE232C51FE232A61FE232871FE6C
:100030002326A1FE2324B1FE2322C1FE2320D1FECC
:10004000232EE1FC232CF1FC232A01FD232811FDA2
:100050002326C1FD2324D1FD2322E1FD2320F1FD30
:10006000130101FCEF0090358320C103832281033B
:1000700003234103832301030325C1028325810256
:1000800003264102832601020327C1018327810140
:100090000328410183280101032EC100832E810022
:1000A000032F4100832F010013010104730020304E
:1000B0009711000093818165138181C81715000095
:1000C0001305C5E49385C1A76308B5002320050087
:1000D000130545006FF05FFF171500001305C5E21B
:1000E0001301C1FF97150000938505E2630EB5006B
:1000F00083260500130545002320A100E7800600A4
:10010000032501006FF01FFE1301410037150000A9
:1001100013050588731045303725000013058580C9
:0C01200073100530EF00101F6F0000008E
:10012C007375043067800000731005306780000021
:10013C00130101F823202500232011002322110094
:10014C007325003013758500630405001305000842
:10015C002324A10023284100232A5100232C6100D1
:10016C00232E710023208102232291022324A10239
:10017C002326B1022328C102232AD102232CE10217
:10018C00232EF1022320010523221105232421050E
:10019C002326310523284105232A5105232C6105EB
:1001AC00232E710523208107232291072324A107E5
:1001BC002326B1072328C107232AD107232CE107C3
:1001CC00232EF10703A1050083250100739015343C
:1001DC0083204100B72500009385058073A005306E
:1001EC008325810073A00530032201018322410184
:1001FC00032381018323C1010324010283244102CF
:10020C00032581028325C1020326010383264103B2
:10021C00032781038327C103032801048328410496
:10022C00032981048329C104032A0105832A41057A
:10023C00032B8105832BC105032C0106832C41065E
:10024C00032D8106832DC106032E0107832E410742
:10025C00032F8107832FC10713010108730020307E
:10026C000321050003250100731015348320410080
:10027C000325810073100530032201018322410103
:10028C00032381018323C10103240102832441023E
:10029C00032581028325C102032601038326410322
:1002AC00032781038327C103032801048328410406
:1002BC00032981048329C104032A0105832A4105EA
:1002CC00032B8105832BC105032C0106832C4106CE
:1002DC00032D8106832DC106032E0107832E4107B2
:1002EC00032F8107832FC1071301010873002030EE
:1002FC006340050663C605061386050093050500D5
:10030C001305F0FF630C060293061000637AB60027
:10031C006358C0001316160093961600E36AB6FED7
:10032C001305000063E6C500B385C5403365D500F1
:10033C0093D6160013561600E39606FE678000004F
:10034C0093820000EFF05FFB1385050067800200CD
:10035C003305A04063D80500B305B0406FF0DFF95A
:10036C00B305B04093820000EFF01FF93305A040B5
:10037C00678002009382000063CA0500634C05008D
:10038C00EFF09FF71385050067800200B305B040BE
:10039C00E35805FE3305A040EFF01FF63305B040DF
:0403AC006780020064
:1003B000130101FC232E8102130401042326A4FC53
:1003C0002324B4FC232604FE232004FE232404FE5D
:1003D000232E04FC232204FE232C04FC832784FC0C
:1003E00083A7870093F7F7002326F4FE832784FC76
:1003F00083A7870093F70701638C0700832784FC9A
:1004000083A747000327C4FEB367F7002326F4FE43
:10041000832784FC83D7070093F7F70F63820710C5
:100420008327C4FC83A707002322F4FE232404FEB1
:100430006F00800D832784FE13071000B317F700A9
:10044000232EF4FC832784FC83D70700138707003F
:100450008327C4FDB3F7E7002320F4FE032704FE3F
:100460008327C4FD631CF708832784FE9397270026
:10047000232EF4FC8327C4FD1307F000B317F70005
:10048000232CF4FC832784FD93C7F7FF032744FE46
:10049000B377F7002322F4FE8327C4FD0327C4FEAD
:1004A000B317F700032744FEB367F7002322F4FED7
:1004B000832784FC03A7870093078002631EF7004D
:1004C000832784FE130710003317F7008327C4FC2B
:1004D00023AAE7006F008002832784FC03A787001C
:1004E00093078004631CF700832784FE1307100022
:1004F0003317F7008327C4FC23A8E700832784FE73
:10050000938717002324F4FE032784FE93077000CB
:10051000E3F2E7F28327C4FC032744FE23A0E700AD
:10052000832784FC03D707009307F00F63F6E710D7
:100530008327C4FC83A747002322F4FE232404FE60
:100540006F00000E832784FE938787001307100037
:10055000B317F700232EF4FC832784FC83D707000E
:10056000138707008327C4FDB3F7E7002320F4FEB9
:10057000032704FE8327C4FD631EF708832784FE38
:1005800093972700232EF4FC8327C4FD1307F00064
:10059000B317F700232CF4FC832784FD93C7F7FFE0
:1005A000032744FEB377F7002322F4FE8327C4FD1C
:1005B0000327C4FEB317F700032744FEB367F70011
:1005C0002322F4FE832784FC03A78700930780027D
:1005D000631EF700832784FE9387870013071000AC
:1005E0003317F7008327C4FC23AAE700832784FC82
:1005F00003A7870093078004631EF700832784FE08
:1006000093878700130710003317F7008327C4FC74
:1006100023A8E700832784FE938717002324F4FE92
:10062000032784FE93077000E3FEE7F08327C4FCF2
:10063000032744FE23A2E700130000000324C103A4
:080640001301010467800000B2
:10064800130101FC232E1102232C8102130401043F
:100658002326A4FC2324B4FC232604FE232404FE1E
:10066800232204FE232004FE232E04FC8327C4FC3B
:10067800232EF4FC8327C4FC83D707019397070133
:1006880093D707012326F4FE0327C4FEB7D700003B
:100698009387F7FFB377F7002326F4FE832784FCBC
:1006A80083D76700138707008327C4FEB3E7E700F3
:1006B8002326F4FE8327C4FE139707011357070167
:1006C8008327C4FC2398E7008327C4FC83D7C7008B
:1006D8009397070193D707012326F4FE0327C4FE47
:1006E800B7F700009387379FB377F7002326F4FE08
:1006F800832784FC03D74700832784FC83D787009C
:10070800B367F7001397070113570701832784FC82
:1007180083D7A700B367F7009397070193D707011B
:10072800138707008327C4FEB3E7E7002326F4FEF8
:100738008327C4FE13970701135707018327C4FCB7
:100748002396E7008327C4FC83D7470193970701C3
:1007580093D707012326F4FE0327C4FEB707010039
:100768009387F7CFB377F7002326F4FE832784FC1B
:1007780083D7C700138707008327C4FEB3E7E700C2
:100788002326F4FE8327C4FE139707011357070196
:100798008327C4FC239AE700832784FC03A7070068
:1007A800B7B703009305070013850798EFF01FB547
:1007B800930705002322F4FE832744FE93974700FE
:1007C8002326F4FE8327C4FE139707011357070156
:1007D8008327C4FC2394E700130000008320C1038F
:0C07E8000324810313010104678000005A
:1007F400130101FE232E8100130401022326A4FE0B
:100804002324B4FE832784FE638807028327C4FE5F
:1008140083D7C7001397070113570701B7270000B1
:10082400B367F70013970701135707018327C4FE23
:100834002396E7006F0000038327C4FE83D7C70015
:100844001397070113570701B7E7FFFF9387F7FFD4
:10085400B377F70013970701135707018327C4FEE3
:100864002396E700130000000324C10113010102D1
:040874006780000099
:10087800130101FE232E1100232C81001304010211
:100888002326A4FE938705002315F4FE1300000019
:10089800930500040325C4FEEF00C00313070500F9
:1008A80093071000E316F7FE8357A4FE93F7F71F8C
:1008B80013970701135707018327C4FE2392E70004
:1008C800130000008320C1010324810113010102E8
:0408D8006780000035
:1008DC00130101FD2326810213040103232EA4FC22
:1008EC0093870500231DF4FC232604FE8327C4FDF7
:1008FC0083D7070013970701135707018357A4FDEC
:10090C00B377F7009397070193D707016388070024
:10091C00930710002326F4FE6F008000232604FEAC
:10092C008327C4FE138507000324C10213010103AE
:04093C0067800000D0
:10094000130101FE232E8100130401022326A4FEBD
:100950002324B4FE8327C4FE83A74700032784FE15
:1009600023A0E7008327C4FE03A74700832784FE54
:1009700023A2E7008327C4FE032784FE23A2E70007
:10098000832784FE0327C4FE23A0E7001300000092
:0C0990000324C101130101026780000074
:10099C00130101FE232E8100130401022326A4FE61
:1009AC000327C4FE9307070093975700B387E740CC
:1009BC0093972700B387E700939727002326F4FE2D
:1009CC006F0000018327C4FE9387F7FF2326F4FEF4
:1009DC008327C4FEE39807FE130000000324C10123
:0809EC00130101026780000005
:1009F400130101FE232E1100232C81001304010294
:100A04002326A4FE93051003370505F0EFF09FE6B7
:100A140013054006EFF05FF8EF00C0386FF09FFE5B
:100A2400130101FE232E1100232C81001304010263
:100A34002326A4FE93052003370505F0EFF09FE37A
:100A440013054006EFF05FF5EF00C0356FF09FFE31
:100A5400130101FD2326110223248102130401033F
:100A6400930780012326F4FE930710002312F4FE5B
:100A7400930730002324F4FE930744FE9385070074
:100A8400371503F0EFF09F92930780042326F4FEBA
:100A9400930720002312F4FE930730002324F4FE6E
:100AA400930744FE93850700371503F0EFF01F907A
:100AB400B7C7010093870720232AF4FC231004FE00
:100AC4009307C000231FF4FC231E04FC231D04FC15
:100AD400231C04FC930744FD93850700370505F0A8
:100AE400EFF05FB693051000370505F0EFF05FD027
:100AF40093051004370505F0EFF0DFD7130000006D
:100B04008320C102032481021301010367800000D2
:100B1400130101FF23261100232481001304010182
:100B2400EFF01FF3B70700F01307F00F23A4E7005B
:100B3400B70700F01307100023A2E700EF00C01C62
:100B440013070010B7170080938687F2130600007E
:100B5400B71700809385479FB71700801385C7F0A8
:100B6400EF00802EB71700809385C7F01385C1A3CB
:100B7400EFF0DFDC130700109386019213060000E8
:100B8400B7170080938547A2138501A2EF00C02BFD
:100B9400938501A2138541A4EFF05FDAEF00801C76
:100BA40093070000138507008320C10003248100FC
:080BB40013010101678000003C
:100BBC00130101FF2326810013040101130000001F
:0C0BCC000324C100130101016780000038
:100BD800130101FD2326810213040103232EA4FC23
:100BE800232CB4FC232AC4FC832744FD93874700A5
:100BF8002324F4FE832784FE93F787FF2324F4FE3F
:100C0800832784FE938707F82324F4FE832784FE32
:100C18002322F4FE232604FE6F00C0028327C4FEAD
:100C280093972700032744FEB307F70037C7ADDEC5
:100C38001307F7EE23A0E7008327C4FE9387170066
:100C48002326F4FE0327C4FE9307F001E3F8E7FC2C
:100C5800032784FD832744FE23A4E7020327C4FD5A
:100C6800832744FE23A0E700832744FE372700009C
:100C78001307078823A4E700832784FE138507004A
:0C0C88000324C102130101036780000077
:100C9400130101FE232E8100130401022326A4FE66
:100CA4008327C4FE0327C4FE23A2E7008327C4FED0
:100CB40003A747008327C4FE23A0E7001300000016
:100CC4000324C1011301010267800000130101FE26
:100CD400232E8100130401022326A4FE8327C4FECD
:100CE4000327C4FE23A2E7008327C4FE03A747000B
:100CF4008327C4FE23A0E700130000000324C101DE
:080D04001301010267800000E9
:100D0C00130101FF232611002324810023229100CB
:100D1C0013040101930400006F00C0011397340009
:100D2C009387C1A3B307F70013850700EFF0DFF536
:100D3C009384140093077000E3D297FEB7170080DA
:100D4C0023A407F0130000008320C10003248100BA
:0C0D5C00832441001301010167800000A6
:100D6800130101FF2326110023248100130401012C
:100D78009387C1A383A00700B717008023A417F0A7
:100D88009387800013850700EFF0CFCD1300000094
:100D98008320C10003248100130101016780000042
:100DA800130101FE232E1100232C810013040102DC
:100DB8009387C1A303A70700B717008083A787F00D
:100DC8006316F702B717008083A787F02324F4FE81
:100DD8009387C1A383A787002326F4FEB717008053
:100DE8000327C4FE23A4E7F06F008002B717008032
:100DF80083A787F02324F4FE9387C1A383A7070062
:100E08002326F4FEB71700800327C4FE23A4E7F0C7
:100E1800832784FE93878700138707008327C4FEF0
:100E2800938787009385070013050700EFF08FB0BD
:100E3800130000008320C101032481011301010272
:040E480067800000BF
:100E4C00130101FD23261102232481021304010343
:100E5C002326A4FE2324B4FE2322C4FE2320D4FE86
:100E6C00232EE4FC8327C4FE13850700EFF09FE5D7
:100E7C008327C4FE032784FE23A6E7008327C4FE32
:100E8C00032744FE23A8E7008327C4FE032704FEA0
:100E9C0023AAE7008327C4FE0327C4FD23ACE70085
:100EAC008327C4FE83A6C7008327C4FE83A507013E
:100EBC008327C4FE03A747018327C4FE83A78701AA
:100ECC009387C7FFB307F700138607001385060047
:100EDC00EFF0DFCF130705008327C4FE23A4E70040
:100EEC0093070000138507008320C10203248102AD
:080EFC001301010367800000EF
:040000058000000077
:00000001FF
