:0200000480007A
:100000006F00000B1300000013000000130000003D
:100010001300000013000000130000001300000094
:10002000232E11FE232C51FE232A61FE232871FE6C
:100030002326A1FE2324B1FE2322C1FE2320D1FECC
:10004000232EE1FC232CF1FC232A01FD232811FDA2
:100050002326C1FD2324D1FD2322E1FD2320F1FD30
:10006000130101FCEF0010208320C10383228103D0
:1000700003234103832301030325C1028325810256
:1000800003264102832601020327C1018327810140
:100090000328410183280101032EC100832E810022
:1000A000032F4100832F010013010104730020304E
:1000B0009711000093818137138181A017150000EB
:1000C0001305C5B697150000938545B66308B500BE
:1000D00023200500130545006FF05FFF1715000092
:1000E0001305C5B41301C1FF97150000938505B42E
:1000F000630EB50083260500130545002320A100EB
:10010000E7800600032501006FF01FFE1301410088
:10011000371500001305058873104530372500009A
:100120001305858073100530EF00900E6F000000FE
:1001300083570500371708F003D66500939707012A
:1001400093D7070183D8450003D805006300E5066F
:10015000372708F06302E50293F7F7CFB367F6009D
:100160002310F5002316150323140503930710002D
:10017000231AF5006780000003D7250093F6F7F8EF
:10018000B3E6E60093F6F6CFB3E7C6002310F5001A
:10019000231615032314050383C785002318F502CE
:1001A00093071000231AF5006780000083D625000E
:1001B00013F7F7F83367D7001377F7CFB367E60085
:1001C0002310F50023161503231405036FF0DFFC3D
:1001D0000357050203D6850003D82500131707012E
:1001E000135707011377E7FF131707011357070189
:1001F0002310E50283570502835645000357850106
:1002000083D80500939707011317070193D70701B8
:1002100013570701336606011377C7F893F7D7FF23
:1002200093960601371808F093D606013367170135
:10023000B3E7C70063020503372608F0630EC50065
:1002400003D665002312D500231CE500231AC5023E
:100250002310F5026780000003D6C50083D8E500AF
:1002600003D3A50093F6F6CF3366160103D84500F5
:10027000B3E6C60093F777FF03D66500B3E76700E0
:100280002312D500231CE50093F7B7FFB3E707015E
:0C029000231AC5022310F502678000004D
:10029C00231005002311050023120500231305006C
:1002AC00231405002315050023160500231705004C
:0402BC006780000057
:1002C000835705006388050093E717002310F500A6
:1002D000678000009397070193D7070193F7E7FF23
:1002E0009397070193D707012310F500678000005B
:1002F0008357C50063080600B3E5F5002316B50073
:100300006780000093C5F5FFB3F5F5002316B5002F
:040310006780000002
:10031400835785009397070193D7070193F787FFC6
:100324009397070193D707012314F5006780000012
:08033400231AB50267800000E6
:10033C0093C5F5FF9395050193D505012318B500D9
:04034C0067800000C6
:10035000835705010355C500B3F7F50013150501D3
:1003600013550501638807003375B5003335A000C8
:0C0370006780000013050000678000009B
:10037C0093C5F5FF9395050193D505012318B50099
:04038C006780000086
:1003900083A6850093F7060113F6F600638607002F
:1003A00083A745003366F60083D7050013F7F70FE0
:1003B000630E070403270500930580046380B624B9
:1003C000930580026386B65293F51700639C05443B
:1003D00093F527006396054893F54700639E054C07
:1003E00093F58700639E054A93F50701639E0548D0
:1003F00093F50702639E054693F50704639605444B
:1004000093F50708639605422320E5001307F00FD4
:100410006376F71003274500930580046392B610B6
:1004200093F60710638A0600137707FF9306001000
:100430003367E6002328D50093F60720638C060077
:10044000931646001377F7F033E7E6009306002093
:100450002328D50093F6074063800602B7F6FFFF16
:100460009386F60F3377D7009316860033E7E600BE
:10047000930600402328D500B71600009386068017
:10048000B3F5D700638E0500B715FFFF9385F5FF21
:100490003377B7009315C60033E7E5002328D5006E
:1004A0009396370163D00602B706F1FF9386F6FFF5
:1004B0003377D7009316060133E7E600B71600003E
:1004C0002328D5009396270163D00602B70610FFB4
:1004D0009386F6FF3377D7009316460133E7E6009D
:1004E000B72600002328D5009396170163D0060293
:1004F000B70600F19386F6FF3377D700931686018F
:1005000033E7E600B74600002328D500939707019C
:1005100093D7074163CE073A2322E50067800000A6
:10052000930580026384B61E93F607106386060067
:10053000137707FF3367E60093F60720638806000A
:100540001377F7F09316460033E7E60093F607407B
:10055000638C0600B7F6FFFF9386F60F3377D7005C
:100560009316860033E7E6009396470163DC0600A6
:10057000B716FFFF9386F6FF3377D7009316C600B2
:1005800033E7E6009396370163DC0600B706F1FF18
:100590009386F6FF3377D7009316060133E7E6001C
:1005A0009396270163DC0600B70610FF9386F6FFDB
:1005B0003377D7009316460133E7E6009396170189
:1005C00063DC0600B70600F19386F6FF3377D700A9
:1005D0009316860133E7E6009397070193D7074107
:1005E000E3DC07F213174700135747001316C60141
:1005F0003367E6002322E5006FF05FF293F5170002
:10060000638A0500137707FF930510003367E60040
:100610002328B50093F52700638C05009315460049
:100620001377F7F033E7E500930520002328B500A2
:1006300093F5470063800502B7F5FFFF9385F50F3B
:100640003377B7009315860033E7E5009305400044
:100650002328B50093F5870063800502B715FFFFD7
:100660009385F5FF3377B7009315C60033E7E500B0
:10067000930580002328B50093F5070163800502E8
:10068000B705F1FF9385F5FF3377B70093150601A2
:1006900033E7E500930500012328B50093F5070231
:1006A00063800502B70510FF9385F5FF3377B70028
:1006B0009315460133E7E500930500022328B500B2
:1006C00093F5070463800502B70500F19385F5FFF4
:1006D0003377B7009315860133E7E50093050004EF
:1006E0002328B50093F50708E38005D213174700C8
:1006F0009315C6011357470033E7E500930500083B
:100700002328B5002320E5006FF05FD093F6071093
:10071000638A0600137707FF930600103367E6002D
:10072000232AD50093F60720638C06009316460013
:100730001377F7F033E7E60093060020232AD5006D
:1007400093F6074063800602B7F6FFFF9386F60F25
:100750003377D7009316860033E7E6009306004010
:10076000232AD500B716000093860680B3F5D7007C
:10077000638E0500B715FFFF9385F5FF3377B7004C
:100780009315C60033E7E500232AD5009396370179
:1007900063D00602B706F1FF9386F6FF3377D700E2
:1007A0009316060133E7E600B7160000232AD500AA
:1007B0009396270163D00602B70610FF9386F6FFD3
:1007C0003377D7009316460133E7E600B7260000DB
:1007D000232AD5009396170163D00602B70600F1CD
:1007E0009386F6FF3377D7009316860133E7E6004A
:1007F000B7460000232AD5009397070193D70741F6
:10080000E3DC07D013174700135747001316C60140
:10081000B78700003367E600232AF5002322E500AE
:100820006FF0DFCF137707FF3367E6006FF05FBA33
:1008300013174700135747009315C60133E7E50028
:100840002320E5006FF09FBCB70500F19385F5FF0D
:100850003377B7009315860133E7E5006FF05FBA91
:100860001377F7F09315460033E7E5006FF0DFB636
:10087000B70510FF9385F5FF3377B7009315460151
:1008800033E7E5006FF05FB7B705F1FF9385F5FF3C
:100890003377B7009315060133E7E5006FF05FB5D6
:1008A000B715FFFF9385F5FF3377B7009315C600A3
:1008B00033E7E5006FF05FB3B7F5FFFF9385F50F02
:1008C0003377B7009315860033E7E5006FF05FB12B
:1008D00013174700135747001316C601B7870000C8
:1008E0003367E6002328F5002322E5006FF01FC3DD
:1008F00093F51700638A0500137707FF930510002F
:100900003367E600232AB50093F52700638C0500C2
:10091000931546001377F7F033E7E50093052000C1
:10092000232AB50093F5470063800502B7F5FFFF62
:100930009385F50F3377B7009315860033E7E5000D
:1009400093054000232AB50093F5870063800502D4
:10095000B715FFFF9385F5FF3377B7009315C600F2
:1009600033E7E50093058000232AB50093F50701DE
:1009700063800502B705F1FF9385F5FF3377B70074
:100980009315060133E7E50093050001232AB5001E
:1009900093F5070263800502B70510FF9385F5FF05
:1009A0003377B7009315460133E7E500930500025E
:1009B000232AB50093F5070463800502B70500F10B
:1009C0009385F5FF3377B7009315860133E7E5008C
:1009D00093050004232AB50093F50708E38605A2D2
:1009E000131747009315C6011357470033E7E50077
:1009F00093050008232AB5002320E5006FF01FA10E
:080A00002328B5006780000007
:080A0800232AB50067800000FD
:100A1000130101FF23261100EF008008EF00801072
:100A2000EF008016B70700F01307F00F23A4E700CC
:100A30001307100023A2E700B70701F023A4E70083
:100A40001307700023A6E7008320C10013071004DA
:100A500023A0E7001307200423A0E70013010101EE
:040A600067800000AB
:100A6400130101FF93051000371508F02326110028
:100A7400EFF0DF8D930710006308F5008320C100B9
:100A840013010101678000008320C1009305100059
:0C0A9400371508F0130101016FF01F8EF0
:100AA000130101FE930710002312F10093070001C8
:100AB000930541002326F100370503F0930730002A
:100AC000232E11002324F100EFF09F8C93051000DA
:100AD000370503F0EFF0DFF293051000370503F060
:100AE000EFF09FF293072000930541002312F100DD
:100AF000370503F0930740012326F100EFF05F89EB
:100B000093052000370503F0EFF09FEF93052000D9
:100B1000370503F0EFF05FEF8320C10113010102FD
:040B200067800000EA
:100B2400130101FE371508F0232E1100EFF04FFEDC
:100B340093077004930541002322F100371508F050
:100B4400930710032324F10023060100EFF00FDEC6
:100B540093051000371508F0EFF00FFE9305100011
:100B6400371508F013061000EFF04FF89305100046
:100B7400371508F0EFF08FF48320C101130101024F
:040B84006780000086
:100B8800130101FC93078001232EF100B717000021
:100B980093054101231AF100370503F0930730004C
:100BA800232E1102232CF100EFF00FFE372508F059
:100BB800EFF0CFF593077004930581002324F1002B
:100BC800372508F0930710032326F10023080100B6
:100BD800EFF08FD513050102EFF0CFEBB707010057
:100BE8009387070693050102372508F02320F102B1
:100BF8002314010223130102EFF00FDD9305100007
:100C0800372508F0EFF04FEB93054001372508F042
:100C1800EFF0CFF18320C1031301010467800000C6
:040000058000000077
:00000001FF
