:0200000480007A
:100000006F00000B1300000013000000130000003D
:100010001300000013000000130000001300000094
:10002000232E11FE232C51FE232A61FE232871FE6C
:100030002326A1FE2324B1FE2322C1FE2320D1FECC
:10004000232EE1FC232CF1FC232A01FD232811FDA2
:100050002326C1FD2324D1FD2322E1FD2320F1FD30
:10006000130101FCEF00D01F8320C1038322810311
:1000700003234103832301030325C1028325810256
:1000800003264102832601020327C1018327810140
:100090000328410183280101032EC100832E810022
:1000A000032F4100832F010013010104730020304E
:1000B0009711000093810134138101A117150000ED
:1000C000130545B397150000938505B36308B50084
:1000D00023200500130545006FF05FFF1715000092
:1000E000130545B11301C1FF97150000938585B035
:1000F000630EB50083260500130545002320A100EB
:10010000E7800600032501006FF01FFE1301410088
:10011000371500001305058873104530372500009A
:100120001305858073100530EF00900E6F000000FE
:100130006340050663C605061386050093050500A2
:100140001305F0FF630C060293061000637AB600F5
:100150006358C0001316160093961600E36AB6FEA5
:100160001305000063E6C500B385C5403365D500BF
:1001700093D6160013561600E39606FE678000001D
:1001800093820000EFF05FFB13850500678002009B
:100190003305A04063D80500B305B0406FF0DFF928
:1001A000B305B04093820000EFF01FF93305A04083
:1001B000678002009382000063CA0500634C05005B
:1001C000EFF09FF71385050067800200B305B0408C
:1001D000E35805FE3305A040EFF01FF63305B040AD
:0401E0006780020032
:1001E40083A6850093F7060113F6F60063860700DD
:1001F40083A745003366F60083D7050013F7F70F8E
:10020400630E070403270500930580046380B62466
:10021400930580026386B65293F51700639C0544E8
:1002240093F527006396054893F54700639E054CB4
:1002340093F58700639E054A93F50701639E05487D
:1002440093F50702639E054693F5070463960544F8
:1002540093F50708639605422320E5001307F00F82
:100264006376F71003274500930580046392B61064
:1002740093F60710638A0600137707FF93060010AE
:100284003367E6002328D50093F60720638C060025
:10029400931646001377F7F033E7E6009306002041
:1002A4002328D50093F6074063800602B7F6FFFFC4
:1002B4009386F60F3377D7009316860033E7E6006C
:1002C400930600402328D500B716000093860680C5
:1002D400B3F5D700638E0500B715FFFF9385F5FFCF
:1002E4003377B7009315C60033E7E5002328D5001C
:1002F4009396370163D00602B706F1FF9386F6FFA3
:100304003377D7009316060133E7E600B7160000EB
:100314002328D5009396270163D00602B70610FF61
:100324009386F6FF3377D7009316460133E7E6004A
:10033400B72600002328D5009396170163D0060240
:10034400B70600F19386F6FF3377D700931686013C
:1003540033E7E600B74600002328D500939707014A
:1003640093D7074163CE073A2322E5006780000054
:10037400930580026384B61E93F607106386060015
:10038400137707FF3367E60093F6072063880600B8
:100394001377F7F09316460033E7E60093F6074029
:1003A400638C0600B7F6FFFF9386F60F3377D7000A
:1003B4009316860033E7E6009396470163DC060054
:1003C400B716FFFF9386F6FF3377D7009316C60060
:1003D40033E7E6009396370163DC0600B706F1FFC6
:1003E4009386F6FF3377D7009316060133E7E600CA
:1003F4009396270163DC0600B70610FF9386F6FF89
:100404003377D7009316460133E7E6009396170136
:1004140063DC0600B70600F19386F6FF3377D70056
:100424009316860133E7E6009397070193D70741B4
:10043400E3DC07F213174700135747001316C601EE
:100444003367E6002322E5006FF05FF293F51700AF
:10045400638A0500137707FF930510003367E600EE
:100464002328B50093F52700638C050093154600F7
:100474001377F7F033E7E500930520002328B50050
:1004840093F5470063800502B7F5FFFF9385F50FE9
:100494003377B7009315860033E7E50093054000F2
:1004A4002328B50093F5870063800502B715FFFF85
:1004B4009385F5FF3377B7009315C60033E7E5005E
:1004C400930580002328B50093F507016380050296
:1004D400B705F1FF9385F5FF3377B7009315060150
:1004E40033E7E500930500012328B50093F50702DF
:1004F40063800502B70510FF9385F5FF3377B700D6
:100504009315460133E7E500930500022328B5005F
:1005140093F5070463800502B70500F19385F5FFA1
:100524003377B7009315860133E7E500930500049C
:100534002328B50093F50708E38005D21317470075
:100544009315C6011357470033E7E50093050008E8
:100554002328B5002320E5006FF05FD093F6071041
:10056400638A0600137707FF930600103367E600DB
:10057400232AD50093F60720638C060093164600C1
:100584001377F7F033E7E60093060020232AD5001B
:1005940093F6074063800602B7F6FFFF9386F60FD3
:1005A4003377D7009316860033E7E60093060040BE
:1005B400232AD500B716000093860680B3F5D7002A
:1005C400638E0500B715FFFF9385F5FF3377B700FA
:1005D4009315C60033E7E500232AD5009396370127
:1005E40063D00602B706F1FF9386F6FF3377D70090
:1005F4009316060133E7E600B7160000232AD50058
:100604009396270163D00602B70610FF9386F6FF80
:100614003377D7009316460133E7E600B726000088
:10062400232AD5009396170163D00602B70600F17A
:100634009386F6FF3377D7009316860133E7E600F7
:10064400B7460000232AD5009397070193D70741A3
:10065400E3DC07D013174700135747001316C601EE
:10066400B78700003367E600232AF5002322E5005C
:100674006FF0DFCF137707FF3367E6006FF05FBAE1
:1006840013174700135747009315C60133E7E500D6
:100694002320E5006FF09FBCB70500F19385F5FFBB
:1006A4003377B7009315860133E7E5006FF05FBA3F
:1006B4001377F7F09315460033E7E5006FF0DFB6E4
:1006C400B70510FF9385F5FF3377B70093154601FF
:1006D40033E7E5006FF05FB7B705F1FF9385F5FFEA
:1006E4003377B7009315060133E7E5006FF05FB584
:1006F400B715FFFF9385F5FF3377B7009315C60051
:1007040033E7E5006FF05FB3B7F5FFFF9385F50FAF
:100714003377B7009315860033E7E5006FF05FB1D8
:1007240013174700135747001316C601B787000075
:100734003367E6002328F5002322E5006FF01FC38A
:1007440093F51700638A0500137707FF93051000DC
:100754003367E600232AB50093F52700638C050070
:10076400931546001377F7F033E7E500930520006F
:10077400232AB50093F5470063800502B7F5FFFF10
:100784009385F50F3377B7009315860033E7E500BB
:1007940093054000232AB50093F587006380050282
:1007A400B715FFFF9385F5FF3377B7009315C600A0
:1007B40033E7E50093058000232AB50093F507018C
:1007C40063800502B705F1FF9385F5FF3377B70022
:1007D4009315060133E7E50093050001232AB500CC
:1007E40093F5070263800502B70510FF9385F5FFB3
:1007F4003377B7009315460133E7E500930500020C
:10080400232AB50093F5070463800502B70500F1B8
:100814009385F5FF3377B7009315860133E7E50039
:1008240093050004232AB50093F50708E38605A27F
:10083400131747009315C6011357470033E7E50024
:1008440093050008232AB5002320E5006FF01FA1BB
:080854002328B50067800000B5
:08085C00232AB50067800000AB
:100864008356050103D76500B7D7FFFF9387F7FFCA
:10087400130101FFB3F7D7002324810023261100BD
:10088400B3E7E70003D7C5002318F5000358C500F4
:1008940013040500B7F7FFFF03D5450003D6850011
:1008A4009387379F83D6A500B3F70701B3E7A70063
:1008B400B3E7C700B3E7D7002316F4008357440116
:1008C40083A5050037B503009397070193D7070164
:1008D40093F7F7CFB367F700231AF40013050598CD
:1008E400EFF05F8513154500131505011355050138
:1008F4002314A4008320C1000324810013010101F7
:040904006780000008
:10090800638C05008357C50037270000B3E7E7006D
:100918002316F500678000000357C500B7E7FFFFFF
:100928009387F7FFB3F7E7002316F5006780000009
:1009380093F7F50F1307100093D75700B315B700B7
:100948006380E7049306200013074501638CD700F2
:1009580083270700630E0600B3E5B7002320B7001E
:10096800678000001307050183270700E31606FECA
:1009780093C5F5FFB3F5F5002320B70067800000A5
:080988001307C5006FF0DFFC4E
:0C09900093F5F51F2312B50067800000EE
:0C099C00035545001375F51F678000002F
:1009A80013F7F50F9306100013575700B397B600C7
:1009B8006306D70493062000630CD702035745014A
:1009C800B3F7E70003550500131505011355050195
:1009D800638C07009307100093D58500B395B70083
:1009E8003375B500B337A000138507006780000092
:1009F80003570501B3F7E7006FF0DFFC0357C500A5
:080A0800B3F7E7006FF01FFCDB
:100A1000130101FF23261100EF008009EF00801170
:100A2000B70700F01307F00F23A4E7001307100027
:100A300023A2E700B70701F023A4E7001307700023
:100A400023A6E7008320C1001307100423A0E700BA
:100A50001307200423A0E7001301010167800000B1
:100A6000130101FF93055052370505F023261100AD
:100A7000EFF09FF3930710006308F5008320C10097
:100A80001301010167800000370505F0EFF01FF149
:100A9000930705008320C10037170080A308F7BE25
:100AA0009375F50F370505F0130101016FF05FEE47
:100AB000130101FE930710002312F10093070001B8
:100AC000930541002326F100370503F0930730001A
:100AD000232E11002324F100EFF0CFF09305100036
:100AE000370503F0EFF01FD793051000370503F02B
:100AF000EFF0DFD693072000930541002312F100A9
:100B0000370503F0930740012326F100EFF08FED46
:100B100093052000370503F0EFF0DFD393052000A5
:100B2000370503F0EFF09FD38320C10113010102C9
:040B300067800000DA
:100B3400130101FD930780012324810293054100E1
:100B4400130430002326F100371503F09307100037
:100B5400232611022312F10023248100EFF04FE831
:100B640093078004930541002326F100371503F011
:100B7400930720002312F10023248100EFF04FE6B5
:100B8400B7C7010093870720930501012328F100CB
:100B9400370505F0B7070C00232CF100231E0100D4
:100BA400232A0100EFF0DFCB130610009305505207
:100BB400370505F0EFF01FD893051000370505F051
:100BC400EFF05FD493051004370505F0EFF01FDC58
:100BD40093052004370505F0EFF05FDB8320C102A5
:0C0BE4000324810213010103678000005C
:040000058000000077
:00000001FF
