:0200000480007A
:100000006F00000B1300000013000000130000003D
:100010001300000013000000130000001300000094
:10002000232E11FE232C51FE232A61FE232871FE6C
:100030002326A1FE2324B1FE2322C1FE2320D1FECC
:10004000232EE1FC232CF1FC232A01FD232811FDA2
:100050002326C1FD2324D1FD2322E1FD2320F1FD30
:10006000130101FCEF0000298320C10383228103D7
:1000700003234103832301030325C1028325810256
:1000800003264102832601020327C1018327810140
:100090000328410183280101032EC100832E810022
:1000A000032F4100832F010013010104730020304E
:1000B00097110000938101A6138101A0170500008C
:1000C00013054525970500009385C5246308B500F1
:1000D00023200500130545006FF05FFF17050000A2
:1000E000130545231301C1FF970500009385852261
:1000F000630EB50083260500130545002320A100EB
:10010000E7800600032501006FF01FFE1301410088
:10011000371500001305058873104530372500009A
:100120001305858073100530EF00C0196F000000C3
:10013000130101FE232E8100130401022326A4FED5
:100140008327C4FE23A007008327C4FE23A407003F
:10015000130000000324C1011301010267800000A5
:10016000130101FE232E8100130401022326A4FEA5
:10017000130000000324C101130101026780000085
:10018000130101FE232E8100130401022326A4FE85
:100190008327C4FE23A207008327C4FE1307F0FFB2
:1001A00023A0E700130000000324C1011301010292
:1001B00067800000130101FE232E81001304010259
:1001C0002326A4FE8327C4FE83A7470093D70701F5
:1001D00093F7F70F138507000324C10113010102F0
:1001E00067800000130101FE232E81001304010229
:1001F0002326A4FE8327C4FE83A7470093D7870145
:10020000138507000324C101130101026780000068
:10021000130101FE232E1100232C8100130401027F
:100220002326A4FE2324B4FE130000000325C4FEED
:10023000EFF05FF893070500E38A07FE8327C4FE0B
:10024000032784FE23A0E700130000008320C101E0
:10025000032481011301010267800000130101FEE4
:10026000232E8100130401022326A4FE2324B4FEBE
:10027000832784FE03A7C7008327C4FE23A4E700C7
:10028000832784FE83A707001387F7FF832784FE55
:1002900083A74700939787003367F700832784FE7F
:1002A00083A78700939707013367F7008327C4FE6E
:1002B00023A6E700130000000324C101130101027B
:1002C00067800000130101FF232681001304010150
:1002D000B70700F01307F00F23A4E700B70700F0FB
:1002E00023A20700130000000324C1001301010131
:1002F00067800000130101FF232681001304010120
:10030000130000000324C1001301010167800000F5
:040000058000000077
:00000001FF
