:0200000480007A
:10000000130101FE232E8100130401022326A4FE06
:100010008327C4FE23A007008327C4FE23A4070070
:10002000130000000324C1011301010267800000D6
:10003000130101FE232E8100130401022326A4FED6
:10004000130000000324C1011301010267800000B6
:10005000130101FE232E8100130401022326A4FEB6
:100060008327C4FE23A207008327C4FE1307F0FFE3
:1000700023A0E700130000000324C10113010102C3
:1000800067800000130101FE232E8100130401028A
:100090002326A4FE8327C4FE83A7470093D7070126
:1000A00093F7F70F138507000324C1011301010221
:1000B00067800000130101FE232E8100130401025A
:1000C0002326A4FE8327C4FE83A7470093D7870176
:1000D000138507000324C10113010102678000009A
:1000E000130101FE232E1100232C810013040102B1
:1000F0002326A4FE2324B4FE130000000325C4FE1F
:10010000EFF05FF893070500E38A07FE8327C4FE3C
:10011000032784FE23A0E700130000008320C10111
:10012000032481011301010267800000130101FE15
:10013000232E8100130401022326A4FE2324B4FEEF
:10014000832784FE03A7C7008327C4FE23A4E700F8
:10015000832784FE83A707001387F7FF832784FE86
:1001600083A74700939787003367F700832784FEB0
:1001700083A78700939707013367F7008327C4FE9F
:1001800023A6E700130000000324C10113010102AC
:1001900067800000130101FE232E81001304010279
:1001A0002326A4FE130000000324C1011301010251
:1001B00067800000130101FF232681001304010161
:1001C000130000000324C100130101016780000037
:1001D000130101FC232E8102130401042326A4FC35
:1001E0002324B4FC232604FE232004FE232404FE3F
:1001F000232E04FC232204FE232C04FC832784FCEE
:1002000083A7870093F7F7002326F4FE832784FC57
:1002100083A7870093F70701638C0700832784FC7B
:1002200083A747000327C4FEB367F7002326F4FE25
:10023000832784FC83D7070093F7F70F63820710A7
:100240008327C4FC83A707002322F4FE232404FE93
:100250006F00800D832784FE13071000B317F7008B
:10026000232EF4FC832784FC83D707001387070021
:100270008327C4FDB3F7E7002320F4FE032704FE21
:100280008327C4FD631CF708832784FE9397270008
:10029000232EF4FC8327C4FD1307F000B317F700E7
:1002A000232CF4FC832784FD93C7F7FF032744FE28
:1002B000B377F7002322F4FE8327C4FD0327C4FE8F
:1002C000B317F700032744FEB367F7002322F4FEB9
:1002D000832784FC03A7870093078002631EF7002F
:1002E000832784FE130710003317F7008327C4FC0D
:1002F00023AAE7006F008002832784FC03A78700FE
:1003000093078004631CF700832784FE1307100003
:100310003317F7008327C4FC23A8E700832784FE54
:10032000938717002324F4FE032784FE93077000AD
:10033000E3F2E7F28327C4FC032744FE23A0E7008F
:10034000832784FC03D707009307F00F63F6E710B9
:100350008327C4FC83A747002322F4FE232404FE42
:100360006F00000E832784FE938787001307100019
:10037000B317F700232EF4FC832784FC83D70700F0
:10038000138707008327C4FDB3F7E7002320F4FE9B
:10039000032704FE8327C4FD631EF708832784FE1A
:1003A00093972700232EF4FC8327C4FD1307F00046
:1003B000B317F700232CF4FC832784FD93C7F7FFC2
:1003C000032744FEB377F7002322F4FE8327C4FDFE
:1003D0000327C4FEB317F700032744FEB367F700F3
:1003E0002322F4FE832784FC03A78700930780025F
:1003F000631EF700832784FE93878700130710008E
:100400003317F7008327C4FC23AAE700832784FC63
:1004100003A7870093078004631EF700832784FEE9
:1004200093878700130710003317F7008327C4FC56
:1004300023A8E700832784FE938717002324F4FE74
:10044000032784FE93077000E3FEE7F08327C4FCD4
:10045000032744FE23A2E700130000000324C10386
:100460001301010467800000130101FE232E8100A7
:10047000130401022326A4FE8327C4FE1307F0FF02
:100480002390E7008327C4FE1307200023A2E70080
:100490008327C4FE1307400023A4E70013000000D5
:1004A0000324C1011301010267800000130101FD53
:1004B0002326810213040103232EA4FC9387050045
:1004C000231DF4FCA30704FE8327C4FD03A78700B4
:1004D0008357A4FDB377F7006388070093071000E4
:1004E000A307F4FE6F008000A30704FE8347F4FE19
:1004F000138507000324C102130101036780000074
:10050000130101FE232E8100130401022326A4FE01
:100510008327C4FE83A787009397070193D707011A
:10052000138507000324C101130101026780000045
:10053000130101FD2326810213040103232EA4FCD1
:1005400093870500231DF4FCA30704FE8327C4FD45
:1005500003A7C7008357A4FDB377F700638807009C
:1005600093071000A307F4FE6F008000A30704FEAA
:100570008347F4FE138507000324C102130101031E
:1005800067800000130101FE232E81001304010285
:100590002326A4FE8327C4FE83A7C70093970701E1
:1005A00093D70701138507000324C101130101023A
:1005B00067800000130101FE232E81001304010255
:1005C0002326A4FE938705002315F4FE0357A4FEFB
:1005D0008327C4FE23A8E700130000000324C10101
:1005E0001301010267800000130101FE232E810028
:1005F000130401022326A4FE938705002315F4FEAD
:100600000357A4FE8327C4FE23AAE70013000000BB
:100610000324C1011301010267800000130101FEE0
:10062000232E8100130401022326A4FE93870500D4
:100630002322C4FE2315F4FE832744FE638A0700A9
:100640000357A4FE8327C4FE23A8E7006F00000120
:100650000357A4FE8327C4FE23AAE700130000006B
:100660000324C1011301010267800000130101FE90
:10067000232E8100130401022326A4FE9387050084
:100680002315F4FE0357A4FE8327C4FE23A6E70028
:10069000130000000324C101130101026780000060
:1006A0006F00000B13000000130000001300000097
:1006B00013000000130000001300000013000000EE
:1006C000232E11FE232C51FE232A61FE232871FEC6
:1006D0002326A1FE2324B1FE2322C1FE2320D1FE26
:1006E000232EE1FC232CF1FC232A01FD232811FDFC
:1006F0002326C1FD2324D1FD2322E1FD2320F1FD8A
:10070000130101FCEF00802B8320C10383228103AE
:1007100003234103832301030325C10283258102AF
:1007200003264102832601020327C1018327810199
:100730000328410183280101032EC100832E81007B
:10074000032F4100832F01001301010473002030A7
:1007500097110000938181A8138181A017050000E3
:100760001305C52797050000938545276308B50045
:1007700023200500130545006FF05FFF17050000FB
:100780001305C5251301C1FF9705000093850525B5
:10079000630EB50083260500130545002320A10044
:1007A000E7800600032501006FF01FFE13014100E2
:1007B00037150000130505887310453037250000F4
:1007C0001305858073100530EF00C0196F0000001D
:1007D000130101FE232E8100130401022326A4FE2F
:1007E0008327C4FE23A007008327C4FE23A4070099
:1007F000130000000324C1011301010267800000FF
:10080000130101FE232E8100130401022326A4FEFE
:10081000130000000324C1011301010267800000DE
:10082000130101FE232E8100130401022326A4FEDE
:100830008327C4FE23A207008327C4FE1307F0FF0B
:1008400023A0E700130000000324C10113010102EB
:1008500067800000130101FE232E810013040102B2
:100860002326A4FE8327C4FE83A7470093D707014E
:1008700093F7F70F138507000324C1011301010249
:1008800067800000130101FE232E81001304010282
:100890002326A4FE8327C4FE83A7470093D787019E
:1008A000138507000324C1011301010267800000C2
:1008B000130101FE232E1100232C810013040102D9
:1008C0002326A4FE2324B4FE130000000325C4FE47
:1008D000EFF05FF893070500E38A07FE8327C4FE65
:1008E000032784FE23A0E700130000008320C1013A
:1008F000032481011301010267800000130101FE3E
:10090000232E8100130401022326A4FE2324B4FE17
:10091000832784FE03A7C7008327C4FE23A4E70020
:10092000832784FE83A707001387F7FF832784FEAE
:1009300083A74700939787003367F700832784FED8
:1009400083A78700939707013367F7008327C4FEC7
:1009500023A6E700130000000324C10113010102D4
:1009600067800000130101FE232E1100232C81005B
:1009700013040102930710002312F4FE93070001F1
:100980002326F4FE930730002324F4FE930744FE4D
:1009900093850700370500F0EFF09F839305100063
:1009A000370500F0EFF01FC1130000008320C101E4
:1009B000032481011301010267800000130101FF7C
:1009C0002326810013040101130000000324C10049
:0809D000130101016780000022
:04000005800006A0D1
:00000001FF
